:020000040000FA
:100000000C9463000C948B000C948B000C948B006C
:100010000C948B000C948B000C948B000C948B0034
:100020000C948B000C948B000C948B000C948B0024
:100030000C948B000C948B000C948B000C948B0014
:100040000C94D3030C948B000C94A1030C947B03AD
:100050000C948B000C948B000C948B000C948B00F4
:100060000C941D040C948B00000000002400270059
:100070002A0000000000250028002B0000000000DE
:1000800023002600290004040404040404040202DA
:100090000202020203030303030301020408102007
:1000A0004080010204081020010204081020000012
:1000B0000008000201000003040700000000000027
:1000C00000003C058C0811241FBECFEFD8E0DEBF36
:1000D000CDBF12E0A0E0B1E0E8EAF3E102C0059094
:1000E0000D92A634B107D9F724E0A6E4B2E001C02E
:1000F0001D92AA3AB207E1F710E0C2E6D0E004C0D0
:100100002197FE010E949508C136D107C9F70E94C8
:10011000A3050C94C7090C94000020919E04309113
:100120009F042F5F3F4F33274091A0045091A104BB
:100130002417350759F0E0919E04F0919F04EA5688
:10014000FC4F808730939F0420939E040895E09194
:10015000E702F091E802309729F01092E402109241
:10016000E302099408950895AF92BF92CF92DF926F
:10017000EF92FF920F931F93CF93DF936C017B015C
:100180008B01040F151FEB015E01AE18BF08C017ED
:10019000D10759F06991D601ED91FC910190F08160
:1001A000E02DC6010995892B79F7C501DF91CF9123
:1001B0001F910F91FF90EF90DF90CF90BF90AF9085
:1001C0000895FC01538D448D252F30E0842F90E05D
:1001D000821B930B541710F0CF9608950197089542
:1001E000FC01918D828D981761F0A28DAE0FBF2F0B
:1001F000B11D5D968C91928D9F5F9F73928F90E061
:1002000008958FEF9FEF0895FC01918D828D9817CF
:1002100031F0828DE80FF11D858D90E008958FEF0C
:100220009FEF0895FC01918D228D892F90E0805CD5
:100230009F4F821B91098F73992708958DEE92E04D
:100240000E94120121E0892B09F420E0822F0895F9
:1002500080E090E0892B29F00E941E0181110C940E
:1002600000000895FC01A48DA80FB92FB11DA35A59
:10027000BF4F2C91848D90E001968F739927848FC6
:10028000A689B7892C93A089B1898C9183708064E9
:100290008C93938D848D981306C00288F389E02D8A
:1002A00080818F7D80830895EF92FF920F931F933B
:1002B000CF93DF93EC0181E0888F9B8D8C8D981319
:1002C0001AC0E889F989808185FF15C09FB7F89425
:1002D000EE89FF896083E889F98980818370806471
:1002E00080839FBF81E090E0DF91CF911F910F91BC
:1002F000FF90EF900895F62E0B8D10E00F5F1F4FCB
:100300000F731127E02E8C8D8E110CC00FB607FCD9
:10031000FACFE889F989808185FFF5CFCE010E9467
:100320003201F1CFEB8DEC0FFD2FF11DE35AFF4FA2
:10033000F0829FB7F8940B8FEA89FB8980818062F5
:10034000CFCFCF93DF93EC01888D8823B9F0AA89B2
:10035000BB89E889F9898C9185FD03C0808186FD80
:100360000DC00FB607FCF7CF8C9185FFF2CF8081CF
:1003700085FFEDCFCE010E943201E9CFDF91CF9111
:100380000895833081F028F4813099F08230A9F00B
:1003900008958730A9F08830C9F08430B1F4809195
:1003A00080008F7D03C0809180008F7780938000D4
:1003B000089584B58F7784BD089584B58F7DFBCF74
:1003C0008091B0008F778093B00008958091B00045
:1003D0008F7DF9CF1F93CF93DF93282F30E0F90162
:1003E000E255FF4F8491F901E656FF4FD491F90190
:1003F000EA57FF4FC491CC23A9F0162F81110E9418
:10040000C101EC2FF0E0EE0FFF1FEE58FF4FA5915A
:10041000B4918FB7F894EC91111108C0D095DE23F8
:10042000DC938FBFDF91CF911F910895DE2BF8CF22
:10043000CF93DF9390E0FC01E656FF4F24918A575B
:100440009F4FFC0184918823D1F090E0880F991F81
:10045000FC01E859FF4FA591B491FC01EE58FF4F04
:10046000C591D491623071F49FB7F8943C91822F7A
:10047000809583238C93E8812E2B28839FBFDF9167
:10048000CF9108958FB7F894EC912E2B2C938FBFBA
:10049000F6CF3FB7F8948091DB029091DC02A091F7
:1004A000DD02B091DE0226B5A89B05C02F3F19F0F2
:1004B0000196A11DB11D3FBFBA2FA92F982F8827E4
:1004C000BC01CD01620F711D811D911D42E0660FBF
:1004D000771F881F991F4A95D1F7089520918C02A4
:1004E000260F3327331F21323105ECF42091B0025F
:1004F000FC0190E080E0243069F082E00895A09152
:100500008C022191AC0144595D4FA40FB52FB11D50
:100510002C930196861798F380918C02680F609354
:100520008C0280E0089581E008951092B00281E08D
:100530008093B2021092B10261E082E10E94EA016E
:1005400061E083E10E94EA01E9EBF0E080818E7FC7
:10055000808380818D7F808388E48093B80085E4E8
:100560008093BC0008950895E091E6028091E50231
:10057000E81730F4F0E0EA5BFD4F808190E00895E9
:100580008FEF9FEF08959091E6028091E5022FEFA3
:100590003FEF981748F4E92FF0E0EA5BFD4F208128
:1005A00030E09F5F9093E602C90108958091E502D3
:1005B0009091E602891B990B0895CF93DF93CB01AD
:1005C000EA01642F0E946E02CE01DF91CF9108955F
:1005D000CF93DF931F92CDB7DEB7698361E0CE0181
:1005E00001960E946E0281E090E00F90DF91CF9122
:1005F000089590E080E008956091EB02662331F069
:100600008AE893E00E94E8021092EB020895CF93EB
:10061000DF93FC0101900020E9F73197AF01481BFF
:10062000590BBC018DEE92E00E94B400EC0142E057
:1006300050E068EF71E08DEE92E00E94B4008C0F04
:100640009D1FDF91CF910895CF93DF9385ED809328
:10065000BC008091680290916902A0916A02B091F9
:100660006B020796A11DB11D23E0B695A79597953E
:1006700087952A95D1F72091BC0024FD03C01092E4
:10068000B00236C0409168025091690260916A02DE
:1006900070916B02452B462B472B69F30097A10500
:1006A000B10541F025E32A95F1F700000197A10972
:1006B000B109E1CF8091670291E0909366028823AF
:1006C000B9F0C091B800D091BA008091BC008A7B8B
:1006D0008093BC0060E082E10E94EA0160E083E177
:1006E0000E94EA010E949502D093BA00C093B8001C
:1006F000DF91CF9108951F920F920FB60F921124A0
:100700002F933F934F935F936F937F938F939F9319
:10071000AF93BF93EF93FF938DEE92E00E9432016F
:10072000FF91EF91BF91AF919F918F917F916F91C9
:100730005F914F913F912F910F900FBE0F901F909F
:1007400018951F920F920FB60F9211242F938F932B
:100750009F93EF93FF93E091FD02F091FE02808161
:10076000E0910303F091040382FD1BC0908180910E
:1007700006038F5F8F7320910703821741F0E0918A
:100780000603F0E0E351FD4F958F80930603FF9140
:10079000EF919F918F912F910F900FBE0F901F900F
:1007A00018958081F4CF1F920F920FB60F921124EB
:1007B0002F933F938F939F93AF93BF938091D702D3
:1007C0009091D802A091D902B091DA023091D6026C
:1007D00023E0230F2D3758F50196A11DB11D20935D
:1007E000D6028093D7029093D802A093D902B093F7
:1007F000DA028091DB029091DC02A091DD02B091DF
:10080000DE020196A11DB11D8093DB029093DC02F4
:10081000A093DD02B093DE02BF91AF919F918F91C3
:100820003F912F910F900FBE0F901F90189526E8C3
:10083000230F0296A11DB11DD2CF1F920F920FB6AA
:100840000F9211242F933F934F935F936F937F9356
:100850008F939F93AF93BF93EF93FF938091B900D2
:10086000887F803609F44AC0F0F5883209F4A7C0C1
:1008700018F5803109F49BC0B8F4882309F4F9C055
:10088000883009F494C0FF91EF91BF91AF919F918F
:100890008F917F916F915F914F913F912F910F9029
:1008A0000FBE0F901F901895883109F488C08032D0
:1008B00051F78093AF0214C0803409F49DC040F416
:1008C0008033B9F38833F9F68093AF0285ECB0C07A
:1008D000803509F485C0883509F496C0883499F6C6
:1008E0000E942403D0CF883909F48CC038F58837AA
:1008F00029F050F4883611F0803729F683E0809390
:10090000B0021092AE0257C0883809F47BC080391B
:1009100019F0803809F0B7CF8091AE02803208F02C
:1009200071C0E091AE0281E08E0F8093AE028091A3
:10093000BB00F0E0E257FD4F80833DC0803B39F0C3
:10094000E0F4803A09F479C0883A09F09CCF84E059
:100950008093B00210928D0210928C02E091E1021D
:10096000F091E202099580918C0281110FC081E023
:1009700080938C0210926C0209C0803C09F4A6CFCF
:10098000883C09F4A3CF883B09F07DCFE0918D022C
:1009900081E08E0F80938D02F0E0E459FD4F80815D
:1009A0008093BB0090918D0280918C0229C0809130
:1009B000D5028093BB0085EC8093BC0064CF9091FE
:1009C000D4028091D302981758F5E091D40281E0C7
:1009D0008E0F8093D402F0E0ED54FD4F8081E9CF7B
:1009E000E091D40281E08E0F8093D4028091BB000D
:1009F000F0E0ED54FD4F80839091D4028091D302BA
:100A00009817C8F285E8D8CFE091D40281E08E0F24
:100A10008093D4028091BB00F0E0ED54FD4F8083C1
:100A20008091B20281115CCF81E08093B10284EAAF
:100A30008093BC001092B00226CF85EC8093BC005E
:100A40001092B0028091AE02803230F4E091AE029A
:100A5000F0E0E257FD4F10826091AE0270E0E0914D
:100A6000DF02F091E0028EE892E009951092AE026A
:100A70000ACF1092AF0234CFEDEEF2E01382128271
:100A800088EE93E0A0E0B0E084839583A683B783EB
:100A900028ED31E03183208325EC30E03587248751
:100AA00024EC30E03787268720EC30E0318B208B38
:100AB00021EC30E0338B228B22EC30E0358B248B21
:100AC00026EC30E0378B268B118E128E138E148E0F
:100AD000EAE8F3E01382128284839583A683B783C6
:100AE0008AEE91E091838083EEE9F3E080E091E08B
:100AF000DF019C011D9221503040E1F7E6E9F3E06F
:100B000010929F0410929E041092A1041092A004CF
:100B10008EE091E0918380838AE091E093838283E9
:100B200080E091E09583848384E090E09093A30437
:100B30008093A2048AE090E09093A5048093A4049B
:100B4000178216820895789484B5826084BD84B536
:100B5000816084BD85B5826085BD85B5816085BDB8
:100B600080916E00816080936E0010928100809170
:100B700081008260809381008091810081608093F8
:100B80008100809180008160809380008091B1001D
:100B900084608093B1008091B00081608093B00048
:100BA00080917A00846080937A0080917A008260DC
:100BB00080937A0080917A00816080937A0080919E
:100BC0007A00806880937A001092C10061E080E131
:100BD0000E94180261E081E10E94180261E081E157
:100BE0000E94180260E080E10E94EA0160E081E179
:100BF0000E94EA0160E081E10E94EA01E091FD02C9
:100C0000F091FE0282E08083E091F902F091FA0215
:100C10001082E091FB02F091FC0280E1808310924F
:100C20000503E0910103F091020386E08083E091E7
:100C3000FF02F0910003808180618083E091FF02D8
:100C4000F0910003808188608083E091FF02F09141
:100C50000003808180688083E091FF02F0910003AF
:100C600080818F7D80838BEF91E00E94070320912C
:100C7000A2043091A3048091A4049091A504289F1C
:100C8000E001299FD00D389FD00D1124CE010E9484
:100C90009B0890939D0380939C03AE0170E060E0FD
:100CA0000E94C009D0E0C0E08091A4049091A50406
:100CB000C817D907B4F4E0919A03F0919B03EC0FA5
:100CC000FD1F61E080810E941802E0919A03F0917B
:100CD0009B03EC0FFD1F61E080810E94EA012196D9
:100CE000E3CFD0E0C0E08091A2049091A304C817A4
:100CF000D90764F4E0919803F0919903EC0FFD1F7C
:100D000062E080810E9418022196EDCF1092E602E7
:100D10001092E5021092E4021092E3020E94950202
:100D200087EA90E09093E2028093E10283EB90E007
:100D30009093E0028093DF0280E18093BA008CEF11
:100D400092E09093E8028093E7027BE4A72EB12C17
:100D5000E0E08E2EE0E09E2ED0E0C0E08091A40482
:100D60009091A504C817D90764F4E0919A03F09113
:100D70009B03EC0FFD1F61E080810E94EA01219638
:100D8000EDCFD0E0C0E08091A4049091A504C817F5
:100D9000D9070CF097C0E0919A03F0919B03EC0FF8
:100DA000FD1F60E080810E94EA01C5010197F1F713
:100DB00010E000E08091A2049091A30408171907A5
:100DC0000CF065C08091A4049091A504089F700167
:100DD000099FF00C189FF00C1124EC0EFD1EE09101
:100DE0009803F0919903E00FF11F208130E0F901A1
:100DF000E255FF4F8491F901E656FF4FD490F90177
:100E0000EA57FF4FC490CC20B1F181110E94C1017B
:100E1000EC2DF0E0EE0FFF1FE458FF4FA591B491C9
:100E2000EC91DE2231E020E009F430E0832F922FB4
:100E3000C0909C03D0909D03CE0CDF1CF601708007
:100E4000272D2270892BD1F4211110C0F72DF660C7
:100E50007F2E81E00E948D008091960390919703F0
:100E6000E80EF91EF70180810E948D00F601708264
:100E70000F5F1F4F9FCF90E080E0DACF2223B1F3C6
:100E8000872D8D7F782E689473F880E0E3CFE09112
:100E90009A03F0919B03EC0FFD1F61E080810E949B
:100EA000EA01219670CF8091EC02882309F470C08A
:100EB0001092EC0260E080E10E94EA018AE092E098
:100EC0000E94070380919E0490919F042091A004AA
:100ED0003091A104821B930B97FD9395959587956F
:100EE000892B09F4C4C02091A0043091A104809101
:100EF0009E0490919F04CFEFDFEF2817390789F008
:100F0000E091A004F091A104EA56FC4FC0858091C5
:100F1000A0049091A104019699279093A104809335
:100F2000A0044091A0045091A10480919E0490914E
:100F30009F044817590709F4CAC0E091A004F09132
:100F4000A104EA56FC4F10858091A0049091A10461
:100F5000019699279093A1048093A004812FC1301A
:100F600009F0B0CF123049F1143109F49CCF11309F
:100F700009F0B2C08091E902882309F440C01092C0
:100F8000E90260E081E10E94EA018EE292E098CFFE
:100F90001092EA0260E081E10E94EA011092E90207
:100FA00060E081E10E94EA01C093EC0261E080E12F
:100FB0000E94EA0184E192E083CF8091EA028823D3
:100FC00049F01092EA0260E081E10E94EA018DE1BD
:100FD00092E076CF1092EC0260E080E10E94EA019C
:100FE0001092E90260E081E10E94EA01C093EA0206
:100FF00061E081E10E94EA0186E292E061CF109215
:10100000EA0260E081E10E94EA011092EC0260E0F5
:1010100080E10E94EA011093E90261E081E10E940F
:10102000EA0186E392E04CCF3091EA02332349F0A3
:10103000880F991F880F991FFC01E45CFE4F828185
:1010400060C03091E902332349F0880F991F880F5F
:10105000991FFC01E45CFE4F838153C02093EB0297
:1010600052C00196349686329105D9F54CC00E9443
:1010700049022B013C018AE0C82ED12CE12CF12C35
:101080000E9449026419750986099709683E7340F0
:1010900081059105A8F381E0C81AD108E108F1089B
:1010A000E8EE4E0EE3E05E1E611C711CC114D1041B
:1010B000E104F10429F78114910409F44DCE0E9452
:1010C0001E01882309F448CE0E94000045CEC1309D
:1010D00009F0F8CE8FEF9FEF282FECE3F1E090E0DE
:1010E00080E030812313BDCF3091EC02332309F42B
:1010F0009BCF880F991F880F991FFC01E45CFE4F5E
:1011000081818093EB026091EB028DEE92E00E9470
:1011100054018DE392E0D4CE80919C0390919D0385
:10112000009711F00C9437090895EE0FFF1F0590FA
:10113000F491E02D09940F931F93CF93DF938230A6
:10114000910510F482E090E0E091A804F091A904E8
:1011500030E020E0B0E0A0E0309799F421153105AF
:1011600009F44AC0281B390B24303105D8F58A818F
:101170009B816115710589F1FB0193838283FE01D7
:1011800011C0408151810281138148175907E0F055
:101190004817590799F4109761F012960C9312971B
:1011A00013961C933296CF01DF91CF911F910F912F
:1011B00008950093A8041093A904F4CF21153105D4
:1011C00051F04217530738F0A901DB019A01BD0124
:1011D000DF01F801C1CFEF01F9CF9093A90480930B
:1011E000A804CDCFFE01E20FF31F8193919322500B
:1011F000310939832883D7CF2091A6043091A704E1
:10120000232B41F420913801309139013093A70408
:101210002093A60420913601309137012115310524
:1012200041F42DB73EB740913A0150913B01241B48
:10123000350BE091A604F091A704E217F307A0F4A0
:101240002E1B3F0B2817390778F0AC014E5F5F4F1C
:101250002417350748F04E0F5F1F5093A7044093A3
:10126000A604819391939FCFF0E0E0E09CCFCF93D1
:10127000DF930097E9F0FC01329713821282A0916C
:10128000A804B091A904ED0130E020E01097A1F48A
:1012900020813181820F931F2091A6043091A704F1
:1012A0002817390709F061C0F093A704E093A6045A
:1012B000DF91CF910895EA01CE17DF07E8F54A8163
:1012C0005B819E0141155105B1F7E901FB83EA837A
:1012D00049915991C40FD51FEC17FD0761F4808126
:1012E00091810296840F951FE901998388838281F9
:1012F00093819B838A83F0E0E0E012968D919C912C
:1013000013970097B9F52D913C911197CD01029655
:10131000820F931F2091A6043091A7042817390744
:1013200039F6309751F51092A9041092A804B093A1
:10133000A704A093A604BCCFD383C283408151816C
:10134000840F951FC817D90761F44E5F5F4F8881DE
:101350009981480F591F518340838A819B819383D0
:1013600082832115310509F0B0CFF093A904E093F1
:10137000A8049ECFFD01DC01C0CF13821282D7CF1B
:10138000DC0101C06D9341505040E0F7089510E03A
:10139000C2E6D0E004C0FE010E9495082196C33643
:1013A000D107C9F7F894FFCF02030405060708091F
:1013B0000A0B0C0D0E0F71776572747975696F7079
:1013C0006173646667686A6B6C087A786376626ECC
:1013D0006D2C2E0A146020020118051B1A1900003A
:1013E000AA0480007151312177573240654533237B
:1013F00072523424745435257959365E7555372622
:101400006949382A6F4F39287050302961410000EE
:101410007353000064442F3F66463B3A67472722D8
:1014200068485B7B6A4A5D7D6B4B2D5F6C4C3D2B46
:101430007A5A000078580000634300007656000096
:10144000624200006E4E00006D4D00002C3C2C2CC2
:101450002E3E2E2E20202020607E60600A0A0A0A7E
:10146000080808080D0D0D0D1818181805050505B4
:101470001B1B1B1B1A1A1A1A191919190000000034
:101480005401B400E100A1011201F00004010000C8
:101490000000E802DD02F902B302D602C302B40280
:1014A0000D0A004B657970616420746573742E2E8B
:1014B0002E000A43415053206F6666000A43415094
:1014C00053206F6E000A53594D206F6666000A5311
:1014D000594D206F6E000A464E206F6666000A4620
:1014E0004E206F6E00207072657373656400FFFF9D
:1014F000FFFFFFFFFFFFFFFFFFFFFFFFFFFFFFFFFC
:101500002E2E20202020607E60600A0A0A0A080829
:1015100008080D0D0D0D18181818050505051B1BDD
:101520001B1B1A1A1A1A1919191900000000540164
:10153000B400E100A1011201F0000401000000006C
:10154000E802DD02F902B302D602C302B4020D0AB8
:10155000004B657970616420746573742E2E2E00C3
:101560000A43415053206F6666000A43415053209E
:101570006F6E000A53594D206F6666000A53594D2D
:10158000206F6E000A464E206F6666000A464E20A7
:101590006F6E00207072657373656400FFFFFFFF5C
:1015A000FFFFFFFFFFFFFFFFFFFFFFFFFFFFFFFF4B
:1015B000FFFFFFFFFFFFFFFFFFFFFFFFFFFFFFFF3B
:1015C000FFFFFFFFFFFFFFFFFFFFFFFFFFFFFFFF2B
:1015D000FFFFFFFFFFFFFFFFFFFFFFFFFFFFFFFF1B
:1015E000FFFFFFFFFFFFFFFFFFFFFFFFFFFFFFFF0B
:1015F000FFFFFFFFFFFFFFFFFFFFFFFFFFFFFFFFFB
:10160000DEBF0FBECDBFDF91CF911F910F91EF9045
:10161000DF90CF90BF90AF909F908F9008950F93E1
:101620001F93CF93DF938C01C0E0D0E0F801EC0F63
:10163000FD1F6491662341F082E591E00E948101E3
:10164000892B11F02196F2CFCE01DF91CF911F911E
:101650000F910895009769F0FC0101900020E9F7CF
:101660003197AF01481B590BBC0182E591E00C9406
:10167000EE0080E090E00895CF93DF930E940F0B7F
:10168000EC0182E491E00E942A0B8C0F9D1FDF91F8
:10169000CF9108958830910539F4809121028823F3
:1016A00041F11092210208958930910539F4809119
:1016B00022028823F1F0109222020895FC01FF27F4
:1016C000EE0FFF1FEF59FE4F4591549120910F02ED
:1016D00030911002BA016223732381E0672B09F471
:1016E00080E04095509524233523309310022093B9
:1016F0000F0208958F929F92AF92BF920F931F9304
:10170000CF93DF93CDB7DEB7A1970FB6F894DEBFC6
:101710000FBECDBF19A2423008F44AE08E010F5D22
:101720001F4F842E912CA12CB12CA50194010E9455
:10173000A615E62FB901CA0101501109EA3014F4C7
:10174000E05D01C0E95CD801EC93232B242B252B11
:1017500061F7C8010E942A0BA1960FB6F894DEBF6C
:101760000FBECDBFDF91CF911F910F91BF90AF9072
:101770009F908F900895CF92DF92EF92FF92CF9338
:10178000DF936C01990FEE08FF08F7FE19C06DE2B8
:1017900082E591E00E948101EC0166277727CB0169
:1017A0006C197D098E099F094AE00E947A0B8C0F03
:1017B0009D1FDF91CF91FF90EF90DF90CF90089524
:1017C0004AE0C701B601DF91CF91FF90EF90DF9023
:1017D000CF900C947A0BDF92EF92FF920F931F93AE
:1017E000CF93DF93EC01E62EF12C85E0689FB001EA
:1017F0001124FE01E60FF71F8085182F177086FF52
:1018000017C001E085E0D82EFE01D09EE00DF11D4D
:101810001124808586958695869587701817F9F02E
:101820000F5F003189F78D81811302C011501D8334
:1018300085E08E9DF0018F9DF00D1124EC0FFD1FB2
:10184000108681E0818712862296D783C683DF9136
:10185000CF911F910F91FF90EF90DF900895602F2F
:10186000CE010E94EB0BD0CF90E0FC01E35BFE4F7A
:101870002491FC01E75CFE4F8491882399F090E06D
:10188000880F991FFC01E15DFE4FA591B491FC0109
:10189000EB5DFE4F859194918FB7F894EC91E22B1C
:1018A000EC938FBF08958F929F92AF92BF92CF9289
:1018B000DF92EF92FF926B017C010E94EC0E4B01D4
:1018C0005C01C114D104E104F104F1F00E94EC0EBA
:1018D000DC01CB0188199909AA09BB09883E93400C
:1018E000A105B10570F321E0C21AD108E108F108A1
:1018F00088EE880E83E0981EA11CB11CC114D1048F
:10190000E104F10419F7DDCFFF90EF90DF90CF9065
:10191000BF90AF909F908F9008956F927F928F921B
:101920009F92AF92BF92CF92DF92EF92FF920F936E
:101930001F93CF93DF93EC01B62EA42E79010E9462
:1019400043046C01009709F44DC0DC01ED91FC915A
:101950001197309709F448C013969C9180E098172E
:1019600031F02081A21629F033968F5FF8CFE0E0A6
:10197000F0E0D701ED93FC933097C1F18281869519
:10198000869590E08031910514F08FE090E041E081
:1019900050E060E070E03A014B0104C0660C771C37
:1019A000881C991C8A95D2F7D401C3010197D801EC
:1019B0008D939C936B2D80EE0E94880788ED0E948A
:1019C000A907F6019481992331F0CA58DF4F688145
:1019D0006260682B02C0682F697F88ED0E948807CB
:1019E00080E005C086ED03C087ED01C08BEDDF917F
:1019F000CF911F910F91FF90EF90DF90CF90BF900C
:101A0000AF909F908F907F906F900895AF92BF920C
:101A1000CF92DF92EF92FF920F931F93CF93DF93BA
:101A200000D000D0CDB7DEB7FC016B015A01DC015C
:101A3000AD58BF4F8C9191E0980F9C93DB011296AB
:101A40008C9343856781E580F6801C821B821A8215
:101A500019828E010F5F1F4F9E012D5F3F4FC701FF
:101A60000E948D0C811109C049815A816B817C8152
:101A700086019501C7010E9420080F900F900F90DA
:101A80000F90DF91CF911F910F91FF90EF90DF901A
:101A9000CF90BF90AF9008952F923F924F925F9258
:101AA0006F927F928F929F92AF92BF92CF92DF926E
:101AB000EF92FF920F931F93CF93DF93CDB7DEB7D3
:101AC00060970FB6F894DEBF0FBECDBF3C01F42E79
:101AD000D22E302E4DA05EA0188A1F861E861D862F
:101AE0008E01035F1F4F9E01215F3F4F0E948D0CAF
:101AF000811198C0D9823A82EB82CC821E821D82EB
:101B0000B886AF82AE014F5F5F4F68E080E20E940F
:101B100061072D853E854F2D60E1C3010E94BD0701
:101B2000E82E81117BC08D2D8078382E4114510410
:101B300009F465C0EF85F8898281332009F450C02B
:101B400082608283650122242394C114D10409F4A4
:101B50005BC09C868B864D855E856F857889E12C80
:101B600082019E01255F3F4FC3010E941309E82EA9
:101B700096E0891312C00F85188988EF0E94A90783
:101B800085FB882780F98225D80112969C911297AF
:101B900080FB91F912969C93D8CF81113FC0EFA1A1
:101BA000F8A53097A1F00190F081E02D0190F0812F
:101BB000E02DC5018C199D099A8789876B857C85E5
:101BC0009E01275F3F4FA2018FA198A509958B85A4
:101BD0009C85C81AD90A8815990508F0B6CF0FC098
:101BE000816082834D855E8582019401BF01C301BE
:101BF0000E942008811116C02D853E8511C02D85BB
:101C00003E85311005C00CC0E11008C02D853E8511
:101C100060EA4F2DC3010E94BD0704C08E2D02C093
:101C200060E8F7CF60960FB6F894DEBF0FBECDBF69
:101C3000DF91CF911F910F91FF90EF90DF90CF90A8
:101C4000BF90AF909F908F907F906F905F904F90DC
:101C50003F902F9008958F929F92AF92BF92CF9214
:101C6000EF920F93CF931F921F921F921F92812C7E
:101C7000912CA12CB12CC12CE62E05E020E040E0F7
:101C800060E00E944C0DC82F6CE271E080E090E0B3
:101C90000E94530C0F900F900F900F908C2FCF91AC
:101CA0000F91EF90CF90BF90AF909F908F9008953D
:101CB000CF92DF92FF920F931F93CF93DF93F62E75
:101CC000D0E0082F10E0000F111F06541D4F6801CF
:101CD000D8018D919C91DC01ED91FC910280F38102
:101CE000E02D2F2D40E060E00995803E59F461E041
:101CF00088EE0E94880766E670E080E090E00E942F
:101D0000530C07C08D3019F4D33058F514C081112D
:101D10002BC0F60180819181DC01ED91FC91019055
:101D2000F081E02D2F2D40E060E00995C82F8D3027
:101D300051F4D33050F464E670E080E090E00E940B
:101D4000530CDF5FC5CF882371F061E088EE0E94FD
:101D5000880766E670E080E090E00E94530C8C2FCC
:101D600003C08DE001C080E0DF91CF911F910F9102
:101D7000FF90DF90CF90089588EF0E94A907807CA4
:101D80008034A1F018F4882301F10895803819F007
:101D9000803CB9F0089588ED0E94A90781FD0BC031
:101DA00069EC88ED0E94880782E00CC088ED0E94F3
:101DB000A90781FDF5CF6BEC88ED0E94880783E0D1
:101DC00001C081E080935101089561ED88ED0E948A
:101DD00088071092510108953FB7F8948091E0026E
:101DE0009091E102A091E202B091E30226B5A89B96
:101DF00005C02F3F19F00196A11DB11D3FBFBA2F9D
:101E0000A92F982F8827820F911DA11DB11DBC01FC
:101E1000CD0142E0660F771F881F991F4A95D1F7C1
:101E200008952FB7F8946091DC027091DD028091E3
:101E3000DE029091DF022FBF08951F920F920FB61E
:101E40000F9211242F933F938F939F93AF93BF9340
:101E50008091DC029091DD02A091DE02B091DF0260
:101E60003091DB0223E0230F2D3720F40196A11DD2
:101E7000B11D05C026E8230F0296A11DB11D2093B8
:101E8000DB028093DC029093DD02A093DE02B0932C
:101E9000DF028091E0029091E102A091E202B09114
:101EA000E3020196A11DB11D8093E0029093E1022F
:101EB000A093E202B093E302BF91AF919F918F9103
:101EC0003F912F910F900FBE0F901F901895EF929A
:101ED000FF92CF93DF93E701DC01129751966C9349
:101EE00051978B818370833009F58A81E82FEE1F2B
:101EF000EE27EE1FEF5FF0E09F01220F331FE20F8E
:101F0000F31FEA0FFB1F8F7080878C8181878E8182
:101F100059969C915997981718F459968C935997FC
:101F200052968C9152978F5F52968C93DF91CF91FE
:101F3000FF90EF900895EF92FF92CF93DF93DC0133
:101F4000E70151966C9351978B818370833009F52B
:101F50008A81E82FEE1FEE27EE1FEF5FF0E09F0172
:101F6000220F331FE20FF31FEA0FFB1F8F708087D2
:101F70008C8181878E8159969C915997981718F476
:101F800059968C93599752968C9152978F5F52968F
:101F90008C93DF91CF91FF90EF900895CF93DF93D3
:101FA000CDB7DEB765970FB6F894DEBF0FBECDBFD5
:101FB000789484B5826084BD84B5816084BD85B524
:101FC000826085BD85B5816085BD80916E00816030
:101FD00080936E00109281008091810082608093D6
:101FE00081008091810081608093810080918000D8
:101FF0008160809380008091B10084608093B10003
:102000008091B00081608093B00080917A008460FC
:1020100080937A0080917A00826080937A00809128
:102020007A00816080937A0080917A008068809342
:102030007A001092C100E0916201F091630182E0A8
:102040008083E0915E01F0915F011082E091600178
:10205000F091610180E1808310926A01E091660154
:10206000F091670186E08083E0916401F091650161
:10207000808180618083E0916401F09165018081BD
:1020800088608083E0916401F091650180818068BF
:102090008083E0916401F091650180818F7D808370
:1020A000229A0E945F071FB7F8948091480181111E
:1020B00063C083E491E0FC01249147E551E0FA011B
:1020C0003491E22FF0E0EE0FFF1FE15DFE4FA5918E
:1020D000B4912C91232309F040C0E2E7F0E0249171
:1020E000FA013491FC0194919923B9F1222339F139
:1020F000233091F038F42130A9F0223001F584B575
:102100008F7D12C0273091F02830A1F02430B9F42F
:10211000809180008F7D03C0809180008F778093B5
:1021200080000DC084B58F7784BD09C08091B00058
:102130008F7703C08091B0008F7D8093B000E92F2E
:10214000F0E0EE0FFF1FEB5DFE4FA591B4919FB73E
:10215000F8948C91382B3C939FBF8AE00E94340CFA
:102160008CB580618CBD8CB580648CBD8DE00E9487
:10217000340C8BE00E94340C809148018F5F809377
:1021800048011FBF229A0E945F07219868E188E8F2
:102190000E94880760E288E70E94880760E088E77D
:1021A0000E94880700E010E088E60E94A9070F5F00
:1021B0001F4F80FD09C00F3FFFEF1F07A9F78CE7F6
:1021C00090E00E940F0BFFCF61EC88ED0E94880722
:1021D00060E680ED0E94880764E088EE0E94880730
:1021E00088EE0E94A90782FFFBCF0E94BC0E60E22E
:1021F00088EC0E94880761E080E80E94880780E9F7
:1022000090E00E940F0B40EAD42ECE0101961C01F3
:1022100050E9F52E19990DC088EC0E94A90785FF99
:1022200004C00E94BC0E60E201C060E088EC0E9425
:10223000880780915101813039F050F0823089F067
:10224000833049F511E00EC093E19093EF0123C074
:102250008091EF01807F8031F1F0A1E1A093EF0147
:102260001AC010E08091EF01807F8031A9F40E94B4
:10227000110FDC01CB0188539F4FAF4FBF4F8093AD
:10228000490190934A01A0934B01B0934C0180E225
:102290008093EF0101C010E03AEB632E32E0732E21
:1022A0005301F501819191915F01009739F0DC01B3
:1022B000ED91FC910680F781E02D0995EAEDF2E0C1
:1022C000EA15FB0571F78091EF01803409F446C0EF
:1022D00050F4803231F18033C9F1813109F040C1CD
:1022E0001092DA020AC0813509F461C0803809F41D
:1022F00073C0803509F034C142C0D3018D919D91E6
:102300003D01009739F0DC01ED91FC910480F581ED
:10231000E02D0995EAEDF2E0E615F70571F782E1A7
:102320001AC00E94110F0091490110914A01209199
:102330004B0130914C01DC01CB01801B910BA20BB6
:10234000B30BB7FD0DC180E38093EF0161E088EE30
:102350000E94880780E48093EF0102C188EE0E940A
:10236000A90780FDFDC088ED0E94A907682F68605D
:1023700088ED0E948807F0E5F093EF01F1C088EC4A
:102380000E94A90786FFECC081E58093EF010E94BF
:10239000110FDC01CB014496A11DB11D80934901B1
:1023A00090934A01A0934B01B0934C01D9C00E9475
:1023B000110F8090490190904A01A0904B01B0907C
:1023C0004C01DC01CB0188199909AA09BB09B7FDA9
:1023D000C7C080E88093EF011B8A28E02C8B8CE338
:1023E0008D8B8AE692E0892B09F4B5C040906A0291
:1023F00050906B02A3E1B0E0AC0FBD1FB0936B0235
:10240000A0936A0210936E021F921F923F922F9226
:1024100092E1892E912C22E1A22EB12CCC24C394DE
:10242000E12C06E020E840E060E084E692E00E94D3
:102430004C0D50926B0240926A020F900F900F90D9
:102440000F90811184C089849A84AB84BC84ED8010
:10245000CE808AEB482E82E0582E00E0F201808187
:1024600091810097B9F1DC01ED91FC910084F18537
:10247000E02D099581112EC0F20180819181DC014E
:10248000ED91FC910088F189E02D6C2D0995882350
:1024900009F1F20180819181DC01ED91FC910484CC
:1024A000F585E02DA501B401099581110DC0F2015A
:1024B00080819181DC01ED91FC910684F785E02D0E
:1024C0006E2D0995882331F0612F802F0E94580EC0
:1024D000813DE9F50F5F82E0480E511C003109F0A3
:1024E000BDCF00E0F30180819181009709F0CAC15E
:1024F0000F5F92E0690E711C0031A1F780916A02B2
:1025000090916B02892B39F110936E0220E040E02C
:1025100060E084E692E00E94EA03082F8823D9F065
:10252000682F84E692E00E9443040097A1F0FC012A
:102530001483602F84E692E00E942B0E182F8823CC
:1025400069F0602F84E692E00E94E406812F8823E0
:1025500029F0823D29F0D092EF0102C0F092EF0104
:102560008091F401882309F484C180911102909133
:102570001202845B924E89399A4308F0BEC1809161
:10258000130290911402845B924E89399A4390F41D
:102590008091150290911602845B924E89399A437C
:1025A00048F48091170290911802845B924E893909
:1025B0009A4310F18091130290911402845B924E21
:1025C00089399A4308F0A8C18091150290911602AA
:1025D000845B924E89399A4308F0ADC1809117020D
:1025E00090911802845B924E89399A4308F0B2C1E7
:1025F00082E491E00E942A0B8091190290911A02C4
:10260000892B39F480911B0290911C02892B91F443
:102610002CC082EF90E00E940F0B60911902709124
:102620001A0280E090E04AE00E947A0B85E491E093
:102630000E942A0B80911B0290911C02892B89F029
:102640008DEE90E00E940F0B60911B0270911C02B6
:1026500080E090E04AE00E947A0B85E491E00E94DD
:102660002A0B82E491E00E942A0B209119023091FA
:102670001A0280914F0190915001A0901B02B090DE
:102680001C028217930739F480914D0190914E01FD
:102690008A159B05D1F13093500120934F01B092E0
:1026A0004E01A0924D01AFEFB0E00E94C8152FEF90
:1026B00033E040E050E00E948715122F9501AFEF04
:1026C000B0E00E94C8152FEF33E040E050E00E94D8
:1026D0008715822F111103C0882309F446C189E0B0
:1026E00089831A828C831D828FE08E831F832887C3
:1026F00019872A878FEF8B871C868D874DE050E0E6
:10270000B10180EF91E00E94060D80E090E00E9410
:102710004A0B882321F08AEE90E00E943C0B82E075
:1027200090E00E944A0B882321F085EE90E00E9401
:102730003C0B83E090E00E944A0B882321F080EE5E
:1027400090E00E943C0B81E090E00E944A0B8823BD
:1027500021F08AED90E00E943C0B85E090E00E9421
:102760004A0B882321F084ED90E00E943C0B84E02A
:1027700090E00E944A0B882321F08FEC90E00E94A9
:102780003C0B80E190E00E944A0B882321F08AEC08
:1027900090E00E943C0B81E190E00E944A0B88236C
:1027A00021F085EC90E00E943C0B8AE090E00E94D2
:1027B0004A0B882321F082EC90E00E943C0B8BE0D6
:1027C00090E00E944A0B882321F08FEB90E00E945A
:1027D0003C0B80912102882331F0109221028CEB76
:1027E00090E00E943C0B80912202882331F01092ED
:1027F000220289EB90E00E943C0B86E090E00E9470
:102800004A0B882321F086EB90E00E943C0B87E086
:1028100090E00E944A0B882321F083EB90E00E9415
:102820003C0B8DE090E00E944A0B882321F081EB65
:1028300090E00E943C0B8CE090E00E944A0B8823C1
:1028400021F08FEA90E00E943C0B8EE090E00E9425
:102850004A0B882321F08DEA90E00E943C0B8FE028
:1028600090E00E944A0B882321F08BEA90E00E94BE
:102870003C0B61E070E080E090E00E94530C0E940D
:10288000F001C8CCDC01ED91FC910084F185E02DD4
:10289000099581112DCEF30180819181DC01ED91AB
:1028A000FC910088F189E02D6C2D09958823D9F0E1
:1028B000F30180819181DC01ED91FC910484F58527
:1028C000E02DA501B4010995811112CEF30180819B
:1028D0009181DC01ED91FC910684F785E02D6E2D50
:1028E0000995811105CE612F802F0E94580E982FD7
:1028F000977F913D09F02BCEFBCD8AE191E00E94BC
:102900000F0B80911102909112020E94BB0B85E483
:1029100091E00E942A0B4ECE8FE091E00E940F0BB7
:1029200080911302909114020E94BB0B85E491E008
:102930000E942A0B49CE83E091E00E940F0B809108
:102940001502909116020E94BB0B85E491E00E9453
:102950002A0B44CE87EF90E00E940F0B8091170264
:10296000909118020E94BB0B43CE89E089831A82A2
:102970008C831D828FE08E831F82188619861A86AB
:102980001B861C861D86BACE1092550110925401EA
:1029900088EE93E0A0E0B0E0809356019093570159
:1029A000A0935801B09359018AE091E090935301AC
:1029B0008093520185EC90E090935F0180935E01DB
:1029C00084EC90E0909361018093600180EC90E052
:1029D000909363018093620181EC90E09093650194
:1029E0008093640182EC90E090936701809366018C
:1029F00086EC90E0909369018093680110926B01DE
:102A000010926C0110926D0110926E018CE391E0B6
:102A100090936502809364021092690210926C0296
:102A200081E080936D0210926E0286E692E09093B0
:102A30006B0280936A021092660288E080936702BC
:102A40008CE380936802E4E6F2E08FEA92E041E0F2
:102A500026E632E015864687178634872387359623
:102A60008E179F07B9F71092DA0281E18093EF0188
:102A70008CE191E09093F1018093F00186E391E085
:102A80009093F3018093F20184E692E09093F60133
:102A90008093F5011092F70181E080930202109279
:102AA0000302109204021092050210920602109284
:102AB000090210920A021092F80188E08093F9014D
:102AC0008CE38093FA011092FB011092FC0184E0E8
:102AD0008093FD011092FE011092FF01809300028D
:102AE000EAEBF2E080E090E021913191232B51F468
:102AF000880F991FFC01E654FD4F80EF91E0918310
:102B00008083089501968031910571F70895052E0F
:102B100097FB1EF400940E949E1557FD07D00E945B
:102B2000A61507FC03D04EF40C949E1550954095C5
:102B3000309521953F4F4F4F5F4F08959095809569
:102B4000709561957F4F8F4F9F4F0895A1E21A2E88
:102B5000AA1BBB1BFD010DC0AA1FBB1FEE1FFF1F41
:102B6000A217B307E407F50720F0A21BB30BE40B91
:102B7000F50B661F771F881F991F1A9469F76095D8
:102B80007095809590959B01AC01BD01CF01089592
:102B9000A29FB001B39FC001A39F700D811D11249E
:102BA000911DB29F700D811D1124911D0895EE0F8E
:102BB000FF1F0590F491E02D099481E090E0F894D6
:102BC0000C94E915DC0101C06D9341505040E0F7D1
:102BD0000895F894FFCF000000002E0200000000CE
:102BE0008101EE001801CE01490127013B010000DF
:102BF0000000780467046403F809CD0364047F03CC
:102C000060045E04CA039B0FFEFF0000670F000014
:102C100000004304EA03E4060D0A00090000FFFF78
:102C2000FFFFFFFFFFFFFFFFFFFFFFFFFFFFFFFFB4
:102C3000FFFFFFFFFFFFFFFFFFFFFFFFFFFFFFFFA4
:102C4000FFFFFFFFFFFFFFFFFFFFFFFFFFFFFFFF94
:102C5000FFFFFFFFFFFFFFFFFFFFFFFFFFFFFFFF84
:107E000001C0DCC0112484B7882361F0982F9A70D8
:107E1000923041F081FF02C097EF94BF282E80E09E
:107E2000B8D0EEC085E08093810082E08093C000EE
:107E300088E18093C10086E08093C20080E1809356
:107E4000C4008EE0A6D0259A86E020E33CEF91E0C6
:107E5000309385002093840096BBB09BFECF1D9A83
:107E6000A8954091C00047FD02C0815089F7EE24DB
:107E7000E39495E0D92E21E1C22E7FD0813461F4C4
:107E80007CD0182F8CD01238E9F0113811F488E02A
:107E900001C083E06BD067C0823411F484E103C079
:107EA000853419F485E083D05EC0853539F465D01A
:107EB000C82F63D0D82FCC0FDD1F54C0863521F4D6
:107EC00084E075D080E0E6CF843609F02EC055D02E
:107ED00054D0F82E52D0B82E00E011E04ED0F80168
:107EE00081938F01FE12FACF5AD0F5E4BF1201C080
:107EF000FFCF83E0FE0187BFE89507B600FCFDCF0A
:107F0000A0E0B1E0FE018D919D910C01E7BEE895E6
:107F100011243296FA12F7CFFE01D7BEE89507B6C4
:107F200000FCFDCFC7BEE8951EC0843771F425D094
:107F300024D0F82E22D033D08E01F80185918F0104
:107F400015D0FA94F110F9CF0EC0853739F427D047
:107F50008EE10CD085E90AD08FE09CCF813511F4F9
:107F600088E017D01CD080E101D087CF9091C0006D
:107F700095FFFCCF8093C60008958091C00087FFD5
:107F8000FCCF8091C00084FD01C0A8958091C600FF
:107F90000895E0E6F0E098E1908380830895EDDFB6
:107FA000803219F088E0F5DFFFCF84E1DFCFCF9397
:107FB000C82FE3DFC150E9F7CF91F1CFFC010A01EF
:107FC00067BFE895112407B600FCFDCF667029F065
:107FD000452B19F481E187BFE8950895FFFFFFFF66
:107FE000FFFFFFFFFFFFFFFFFFFFFFFFFFFFFFFFA1
:107FF000FFFFFFFFFFFFFFFFFFFFFFFFFFFF000887
:10800000FFFFFFFFFFFFFFFFFFFFFFFFFFFFFFFF80
:10801000FFFFFFFFFFFFFFFFFFFFFFFFFFFFFFFF70
:10802000FFFFFFFFFFFFFFFFFFFFFFFFFFFFFFFF60
:10803000FFFFFFFFFFFFFFFFFFFFFFFFFFFFFFFF50
:00000001FF
